:020000040000FA
:100000000C9472000C949A000C949A000C949A0030
:100010000C949A000C949A000C949A000C949A00F8
:100020000C949A000C949A000C949A000C949A00E8
:100030000C949A000C949A000C949A000C949A00D8
:100040000C9454050C949A000C94C4050C949E05D1
:100050000C949A000C949A000C949A000C949A00B8
:100060000C949A000C949A000000000024002700D1
:100070002A0000000000250028002B0000000008D6
:10008000000201000003040700000000000000005F
:10009000005EBCE2613FDD83C29C7E20A3FD1F4168
:1000A000009D23BE46DB65F88C11AF32CA57E97458
:1000B00000000000230026002900040404040404B6
:1000C0000404020202020202030303030303010207
:1000D00004081020408001020408102001020408D6
:1000E0001020F60511241FBECFEFD8E0DEBFCDBF34
:1000F00011E0A0E0B1E0E4EBF5E102C005900D9263
:10010000AA35B107D9F722E0AAE5B1E001C01D92F6
:10011000A033B207E1F710E0C2E7D0E004C02197B6
:10012000FE010E94D20AC137D107C9F70E948F068B
:100130000C94D80A0C94000080910202E091030212
:10014000F0910402F8949181982B91832281382FA9
:10015000309523232283A7E0B0E01197F1F7918136
:1001600093239183A3E2B0E01197F1F79081789403
:10017000EFECF0E03197F1F7982381E009F480E0AB
:10018000089590910202E0910302F0910402292F58
:10019000209580FF14C0F89482818223828381811C
:1001A000892B8183A3E2B0E01197F1F78281982B2C
:1001B0009283789487ED90E00197F1F70895F89491
:1001C0008281822382838181892B8183AFEFB0E09A
:1001D0001197F1F78281982B928378948FE090E0C9
:1001E000EBCFFF920F931F93CF93DF93F82E062F41
:1001F000C8E0D0E011E081E09F2D912309F480E078
:100200000E94C100110F2197B1F7011113C0F8949A
:10021000E0910302F09104029181809102028095A5
:1002200098239183E0910302F09104029281892343
:1002300082837894DF91CF911F910F91FF90089561
:100240000F931F93CF93DF9390910202E0910302EB
:10025000F0910402F8942181392F309523232183D2
:1002600078944DE763E070E0415039F1DB0111977C
:10027000F1F720812923C1F3F894228123232283DB
:100280002181292B21837894ABE7B7E01197F1F70F
:10029000F894218123232183A3E1B1E01197F1F7A1
:1002A00020817894E3E6F6E03197F1F7922329F480
:1002B0008C3C69F040F4853579F080E0DF91CF9196
:1002C0001F910F9108958C3E11F0803FB1F760E0CF
:1002D0000E94F10081E0F2CF60E085E50E94F1002C
:1002E000C3E1D2E00BE112E060E089910E94F100ED
:1002F0000C171D07C9F7EECF80911F028F3351F005
:1003000018F48F3149F008958F3541F08F37D9F7C0
:100310008CE008958AE0089589E008958BE00895BF
:10032000CF92DF92EF92FF920F931F93CF93DF93C1
:10033000D0912F02D1116FC080EF0E94200188233D
:1003400009F469C000E0C0E0C12CD12C7601C3944F
:100350000E949C00182F0E949C00112371F088239A
:1003600061F010922E028D2FDF91CF911F910F918E
:10037000FF90EF90DF90CF900895EC2FE695E695F3
:10038000E695F0E03C2F3770EE5FFD4F24A1111190
:1003900030C0811133C080912E028C1761F18C170F
:1003A00060F1822F90E0032E02C0959587950A9404
:1003B000E2F7482F417080FF20C0D701C60104C07A
:1003C000880F991FAA1FBB1F3A95D2F7822B84A3CF
:1003D000142F812F0E94C100CF5FC03409F0B8CF25
:1003E00000932E02011103C081E080932F02D1E01F
:1003F000BACF412FE2CF41E0E0CF0C2FD701C601A9
:1004000004C0880F991FAA1FBB1F3A95D2F7809589
:10041000822384A3DECF10922E0210922F02D0E00E
:10042000A2CF90E0FC01E458FF4F2491FC01E2537D
:10043000FF4F3491FC01E654FF4FE491EE23C9F0E5
:10044000222339F0233001F1A8F4213019F12230B0
:1004500029F1F0E0EE0FFF1FEE58FF4FA591B49188
:100460008FB7F894EC91611126C030953E233C93F0
:100470008FBF08952730A9F02830C9F0243049F7FC
:10048000809180008F7D03C0809180008F77809362
:100490008000DFCF84B58F7784BDDBCF84B58F7DBF
:1004A000FBCF8091B0008F778093B000D2CF809146
:1004B000B0008F7DF9CF3E2BDACFCF93DF9390E062
:1004C000FC01E253FF4F249186549F4FFC0184911D
:1004D0008823D1F090E0880F991FFC01E859FF4F65
:1004E000A591B491FC01EE58FF4FC591D4916111D3
:1004F0000EC09FB7F8948C91E22FE0958E238C93D9
:100500002881E223E8839FBFDF91CF9108958FB7C1
:10051000F894EC91E22BEC938FBFF6CF3FB7F894B1
:100520008091610190916201A0916301B091640199
:1005300026B5A89B05C02F3F19F00196A11DB11D3E
:100540003FBFBA2FA92F982F8827BC01CD01620F7A
:10055000711D811D911D42E0660F771F881F991F35
:100560004A95D1F708958F929F92AF92BF92CF9202
:10057000DF92EF92FF924B015C010E948E026B01B1
:100580007C010E948E026C197D098E099F09683ECC
:10059000734081059105A8F321E0821A9108A10812
:1005A000B10888EEC80E83E0D81EE11CF11C81144E
:1005B0009104A104B10429F7FF90EF90DF90CF9050
:1005C000BF90AF909F908F900895AF92BF92CF92BF
:1005D000DF92EF92FF920F931F93CF93DF936C0103
:1005E0007B018B01040F151FEB015E01AE18BF08E4
:1005F000C017D10759F06991D601ED91FC91019096
:10060000F081E02DC6010995892B79F7C501DF91AD
:10061000CF911F910F91FF90EF90DF90CF90BF90FF
:10062000AF900895FC01538D448D252F30E0842F29
:1006300090E0821B930B541710F0CF96089501970A
:100640000895FC01918D828D981761F0A28DAE0FF7
:10065000BF2FB11D5D968C91928D9F5F9F73928F7E
:1006600090E008958FEF9FEF0895FC01918D828DAA
:10067000981731F0828DE80FF11D858D90E0089577
:100680008FEF9FEF0895FC01918D228D892F90E0CF
:10069000805C9F4F821B91098F739927089585E68F
:1006A00091E00E94430321E0892B09F420E0822F8E
:1006B000089580E090E0892B29F00E944F0381117A
:1006C0000C9400000895FC01A48DA80FB92FB11D52
:1006D000A35ABF4F2C91848D90E001968F73992778
:1006E000848FA689B7892C93A089B1898C91837056
:1006F00080648C93938D848D981306C00288F3894F
:10070000E02D80818F7D80830895EF92FF920F937B
:100710001F93CF93DF93EC0181E0888F9B8D8C8DAD
:1007200098131AC0E889F989808185FF15C09FB7A1
:10073000F894EE89FF896083E889F9898081837064
:10074000806480839FBF81E090E0DF91CF911F9113
:100750000F91FF90EF900895F62E0B8D10E00F5F34
:100760001F4F0F731127E02E8C8D8E110CC00FB60A
:1007700007FCFACFE889F989808185FFF5CFCE01A2
:100780000E946303F1CFEB8DEC0FFD2FF11DE35AB7
:10079000FF4FF0829FB7F8940B8FEA89FB89808125
:1007A0008062CFCFCF93DF93EC01888D8823B9F09F
:1007B000AA89BB89E889F9898C9185FD03C080816C
:1007C00086FD0DC00FB607FCF7CF8C9185FFF2CFE9
:1007D000808185FFEDCFCE010E946303E9CFDF91D9
:1007E000CF910895CF92DF92EF92FF920F931F93D4
:1007F000CF93DF9385E50E942001882321F060E0FC
:100800008EEB0E94F100CBE1D2E08E0188E0C82E91
:10081000D12CF12CEE24E3940E949C008111FE283F
:10082000EE0C81E0C81AD108B9F7F801F1928F01F6
:10083000F2E004321F0751F729E0E0E0215089F08F
:1008400089918E27E82FEF70F0E0E057FF4F9491E9
:10085000E82FE295EF70F0E0E056FF4FE491E927D2
:10086000EDCF81E0909123029E1380E0DF91CF9144
:100870001F910F91FF90EF90DF90CF900895FC01B2
:1008800001900020E9F73197AF01481B590BBC01DB
:1008900085E691E00C94E5028F929F92AF92BF9211
:1008A0000F931F93CF93DF93CDB7DEB7A1970FB60A
:1008B000F894DEBF0FBECDBF19A2423008F44AE063
:1008C0008E010F5D1F4F842E912CB12CA12CA50100
:1008D00094010E94D008E62FB901CA01EA30F4F46D
:1008E000E05DD801EE938D01232B242B252B79F786
:1008F00090E080E0109719F0CD010E943F04A1968E
:100900000FB6F894DEBF0FBECDBFDF91CF911F9120
:100910000F91BF90AF909F908F900895E95CE1CFC9
:10092000EF92FF920F931F93CF93DF932FEF30E05F
:10093000DC010E94CB0A24E630E040E050E00E9457
:100940009E08E9017A01890161E08BE00E945D0265
:10095000CF3FD10529F461E08BE00E94110223C052
:10096000E7E8F0E0E491E330B1F148F4E130B9F0C8
:10097000E23061F10F37110571F760E0EDCFE7303C
:10098000A1F1E830D1F1E430A9F7809180008062D4
:1009900080938000D0938B00C0938A0004C084B5FC
:1009A000806884BDC7BD82E191E00E943F044AE0B7
:1009B000BE01C7010E944C048EE191E0DF91CF910E
:1009C0001F910F91FF90EF900C943F0484B58062CB
:1009D00084BDC8BDE8CF809180008068809380008E
:1009E000D0938900C0938800DECF8091B0008068EA
:1009F0008093B000C093B300D6CF8091B0008062E6
:100A00008093B000C093B400CECF0F931F93CF93C9
:100A1000DF938C0180EF0E942001C0E0811106C0AD
:100A200080E0DF91CF911F910F9108950E949C006B
:100A3000D82F0E949C00DD2311F08111F1CFEC2F03
:100A4000E695E695E695E00FF12FF11D808190E0A7
:100A50002C2F277002C0959587952A95E2F7817013
:100A60000E94C100CF5FC03409F788E0F801A3E11C
:100A7000B2E001900D928A95E1F70E94F20388237B
:100A800079F20E947C018093240285E50E94200176
:100A9000882321F060E084EB0E94F1000E949C001A
:100AA0008093250281E0BDCF1F920F920FB60F9267
:100AB00011242F933F938F939F93AF93BF93809174
:100AC0005D0190915E01A0915F01B0916001309154
:100AD0005C0123E0230F2D3758F50196A11DB11DB0
:100AE00020935C0180935D0190935E01A0935F0170
:100AF000B09360018091610190916201A0916301C6
:100B0000B09164010196A11DB11D80936101909384
:100B10006201A0936301B0936401BF91AF919F9173
:100B20008F913F912F910F900FBE0F901F901895AE
:100B300026E8230F0296A11DB11DD2CF1F920F925E
:100B40000FB60F9211242F933F934F935F936F93A0
:100B50007F938F939F93AF93BF93EF93FF9385E61C
:100B600091E00E946303FF91EF91BF91AF919F913C
:100B70008F917F916F915F914F913F912F910F9046
:100B80000FBE0F901F9018951F920F920FB60F92E5
:100B900011242F938F939F93EF93FF93E09175010F
:100BA000F09176018081E0917B01F0917C0182FDE2
:100BB0001BC0908180917E018F5F8F7320917F0198
:100BC000821741F0E0917E01F0E0EB59FE4F958FE6
:100BD00080937E01FF91EF919F918F912F910F90C4
:100BE0000FBE0F901F9018958081F4CF109268016E
:100BF0001092670188EE93E0A0E0B0E08093690175
:100C000090936A01A0936B01B0936C0184E091E032
:100C1000909366018093650185EC90E0909372015A
:100C20008093710184EC90E0909374018093730140
:100C300080EC90E0909376018093750181EC90E0D8
:100C4000909378018093770182EC90E090937A0101
:100C50008093790186EC90E090937C0180937B01F6
:100C600010927E0110927F011092800110928101FA
:100C700060E082E00E945D02E0EDF0E0E491E0934C
:100C80000202ECEBF0E0E491F0E0EE0FFF1FE05524
:100C9000FF4F8591949190930402809303021092E8
:100CA0000D0210920F0210920E0210920C0210927E
:100CB0000B0210920A02109209021092080210927E
:100CC0000702109206021092050210922E02109254
:100CD0002F028CEC0E942001882321F060E084EB3D
:100CE0000E94F1000E949C00809311020E949001DA
:100CF0008823A1F086E292E00E940505882371F026
:100D00000E947C0190911002981710F480931002B9
:100D1000809112028F5F80931202E8CF0895789439
:100D200084B5826084BD84B5816084BD85B58260F0
:100D300085BD85B5816085BD80916E0081608093A1
:100D40006E0010928100809181008260809381000A
:100D5000809181008160809381008091800081601A
:100D6000809380008091B10084608093B100809175
:100D7000B00081608093B00080917A00846080939D
:100D80007A0080917A00826080937A0080917A0064
:100D9000816080937A0080917A00806880937A00E5
:100DA0001092C10061E08CE00E945D0261E08CE085
:100DB0000E941102E0917501F091760182E080833A
:100DC000E0917101F09172011082E0917301F09154
:100DD00074018FEC808310927D01E0917901F09194
:100DE0007A0186E08083E0917701F091780180813B
:100DF00080618083E0917701F09178018081886043
:100E00008083E0917701F091780180818068808310
:100E1000E0917701F091780180818F7D808310E4EB
:100E2000C0E0D0E00E949001882309F410C186E25E
:100E300092E00E940505882309F409C181E291E04E
:100E40000E943F04F090250285E50E94200188233E
:100E500031F061E0F11060E084E40E94F1008091E3
:100E600025028823D1F10E949C008823E1F30E948F
:100E7000F20360911B0280911C02909124029A302F
:100E800009F44DC09B3009F44CC0993009F4687FD7
:100E900090E0982F8827680F792F711D072E000C7E
:100EA000880B990B0E94A40920E030E040E85DE344
:100EB0000E94590A6B017C014B015C01AC019B0152
:100EC0000E94C60A882379F189E391E00E943F04D9
:100ED0008EE191E00E943F04A5CF809124028A30E8
:100EE000A1F048F4893019F66EE570E080E090E0FA
:100EF0000E94B302BCCF8B3069F08C3009F0B7CFC1
:100F00006EEE72E080E090E0F3CF6CEB70E080E09A
:100F100090E0EECF67E771E080E090E0E9CF6C7F92
:100F2000B7CF6E7FB5CF26013701E89477F82FEF62
:100F30003FEF4FE75FE7C301B2010E94C60A81118C
:100F40000DC02FEF3FEF4FE75FE7C301B2010E94F3
:100F50006E0918161CF48DE391E0B8CF2FEF3FEF28
:100F60004FE75FE4C701B6010E94540A18161CF44B
:100F700081E491E0ABCF2FEF3FEF4FE75FECC7018C
:100F8000B6010E946E0987FDF3CF20E030E0A90191
:100F9000C701B6010E946E0987FF0BC06DE285E6AE
:100FA00091E00E94850346015701B7FAB094B7F863
:100FB000B0942AE037ED43EA5BE3C501B4010E9437
:100FC00002094B015C010E9473096B017C010E94C4
:100FD000A2099B01AC01C501B4010E9401094B01AA
:100FE0005C014AE0C701B6010E944C046EE285E64E
:100FF00091E00E94850320E030E040E251E4C50129
:10100000B4010E94590A4B015C010E9473096B01F3
:10101000F12CE12C4AE0C701B6010E944C04C70143
:10102000B6010E94A2099B01AC01C501B4010E9456
:10103000010920E030E040E251E40E94590A0E9498
:10104000730990E080E04AE00E944C0441CF109385
:101050007C0080917A00806480937A0080917A008D
:1010600086FDFCCF2091780030917900211584E035
:10107000380714F02FEF33E0203981E0380714F4FB
:1010800020E931E0032E000C440B550B2059314070
:1010900041095109ACE9BFEF0E94CB082FE632E0CD
:1010A00040E050E00E949E082C593F4F4F4F5F4F49
:1010B00030935B0120935A0185E491E00E943F0444
:1010C000C0905A01D0905B010D2C000CEE08FF0877
:1010D0004AE0C701B601F7FE0DC06DE285E691E07A
:1010E0000E94850366277727CB016C197D098E093D
:1010F0009F094AE00E944C048EE191E00E943F0467
:1011000080915A0190915B01892BA9F484E690E0CB
:101110000E94900460ED77E080E090E00E94B302CE
:10112000209709F47FCE0E944F03882309F47ACEDA
:101130000E94000077CE82E390E0EACF052E97FB75
:101140001EF400940E94B50857FD07D00E94D008F5
:1011500007FC03D04EF40C94B5085095409530959B
:1011600021953F4F4F4F5F4F089590958095709513
:1011700061957F4F8F4F9F4F08950E94F208A59F62
:10118000900DB49F900DA49F800D911D1124089582
:10119000B7FF0C94BD080E94BD08821B930B0895F5
:1011A000A1E21A2EAA1BBB1BFD010DC0AA1FBB1F6B
:1011B000EE1FFF1FA217B307E407F50720F0A21BDD
:1011C000B30BE40BF50B661F771F881F991F1A944A
:1011D00069F760957095809590959B01AC01BD0174
:1011E000CF010895A29FB001B39FC001A39F700DCE
:1011F000811D1124911DB29F700D811D1124911D1F
:1012000008955058BB27AA270E9419090C941A0A5E
:101210000E940C0A38F00E94130A20F039F49F3F14
:1012200019F426F40C94090A0EF4E095E7FB0C94EB
:10123000030AE92F0E942B0A58F3BA1762077307B3
:101240008407950720F079F4A6F50C944D0A0EF466
:10125000E0950B2EBA2FA02D0B01B90190010C01C6
:10126000CA01A0011124FF27591B99F0593F50F4DE
:10127000503E68F11A16F040A22F232F342F442736
:10128000585FF3CF469537952795A795F04053952E
:10129000C9F77EF41F16BA0B620B730B840BBAF0FE
:1012A0009150A1F0FF0FBB1F661F771F881FC2F769
:1012B0000EC0BA0F621F731F841F48F4879577957D
:1012C0006795B795F7959E3F08F0B0CF9395880F37
:1012D00008F09927EE0F9795879508950E94DF09EA
:1012E00008F481E008950E94330A88F09F5798F02F
:1012F000B92F9927B751B0F0E1F0660F771F881F1B
:10130000991F1AF0BA95C9F714C0B13091F00E9434
:101310004D0AB1E008950C944D0A672F782F882765
:10132000B85F39F0B93FCCF3869577956795B3955B
:10133000D9F73EF490958095709561957F4F8F4FCA
:101340009F4F0895E89409C097FB3EF490958095CF
:10135000709561957F4F8F4F9F4F9923A9F0F92F7B
:1013600096E9BB279395F695879577956795B795F9
:10137000F111F8CFFAF4BB0F11F460FF1BC06F5FDF
:101380007F4F8F4F9F4F16C0882311F096E911C0F1
:10139000772321F09EE8872F762F05C0662371F012
:1013A00096E8862F70E060E02AF09A95660F771F26
:1013B000881FDAF7880F9695879597F90895990F02
:1013C0000008550FAA0BE0E8FEEF16161706E8070F
:1013D000F907C0F012161306E407F50798F0621B30
:1013E000730B840B950B39F40A2661F0232B242B05
:1013F000252B21F408950A2609F4A140A6958FEF24
:10140000811D811D089597F99F6780E870E060E075
:1014100008959FEF80EC089500240A94161617068D
:1014200018060906089500240A94121613061406D5
:1014300005060895092E0394000C11F4882352F038
:10144000BB0F40F4BF2B11F460FF04C06F5F7F4FF0
:101450008F4F9F4F089557FD9058440F551F59F0D7
:101460005F3F71F04795880F97FB991F61F09F3F91
:1014700079F087950895121613061406551FF2CFBA
:101480004695F1DF08C0161617061806991FF1CF0A
:1014900086957105610508940895E894BB27662731
:1014A0007727CB0197F908950E94DF0908F48FEFA1
:1014B00008950E946C0A0C941A0A0E940C0A38F0D3
:1014C0000E94130A20F0952311F00C94030A0C9447
:1014D000090A11240C944E0A0E942B0A70F3959F5E
:1014E000C1F3950F50E0551F629FF001729FBB271B
:1014F000F00DB11D639FAA27F00DB11DAA1F649FB7
:101500006627B00DA11D661F829F2227B00DA11D69
:10151000621F739FB00DA11D621F839FA00D611DEF
:10152000221F749F3327A00D611D231F849F600D10
:10153000211D822F762F6A2F11249F5750409AF039
:10154000F1F088234AF0EE0FFF1FBB1F661F771FC5
:10155000881F91505040A9F79E3F510580F00C9490
:10156000030A0C944E0A5F3FE4F3983ED4F3869549
:1015700077956795B795F795E7959F5FC1F7FE2B30
:10158000880F911D9695879597F908950E94DF0918
:10159000880B990B08950E94F208B7FF0895821BEB
:1015A000930B0895EE0FFF1F0590F491E02D099421
:1015B000F894FFCF000000008503E5021203D20378
:1015C0004303210335035370656564202825293AB8
:1015D00020000D0A0054656D706572617475726546
:1015E000202863656C73697573293A20006E616EFB
:1015F00000696E66006F766600536F696C206875CF
:0E1600006D6964697479202825293A2000005C
:107E0000112484B714BE81FFF0D085E080938100F7
:107E100082E08093C00088E18093C10086E0809377
:107E2000C20080E18093C4008EE0C9D0259A86E02C
:107E300020E33CEF91E0309385002093840096BBD3
:107E4000B09BFECF1D9AA8958150A9F7CC24DD24C4
:107E500088248394B5E0AB2EA1E19A2EF3E0BF2EE7
:107E6000A2D0813461F49FD0082FAFD0023811F036
:107E7000013811F484E001C083E08DD089C08234E0
:107E800011F484E103C0853419F485E0A6D080C0E4
:107E9000853579F488D0E82EFF2485D0082F10E0AE
:107EA000102F00270E291F29000F111F8ED06801E7
:107EB0006FC0863521F484E090D080E0DECF843638
:107EC00009F040C070D06FD0082F6DD080E0C81688
:107ED00080E7D80618F4F601B7BEE895C0E0D1E017
:107EE00062D089930C17E1F7F0E0CF16F0E7DF06D8
:107EF00018F0F601B7BEE89568D007B600FCFDCFD4
:107F0000A601A0E0B1E02C9130E011968C91119780
:107F100090E0982F8827822B932B1296FA010C0160
:107F200087BEE89511244E5F5F4FF1E0A038BF0790
:107F300051F7F601A7BEE89507B600FCFDCF97BE46
:107F4000E89526C08437B1F42ED02DD0F82E2BD052
:107F50003CD0F601EF2C8F010F5F1F4F84911BD097
:107F6000EA94F801C1F70894C11CD11CFA94CF0C13
:107F7000D11C0EC0853739F428D08EE10CD085E9AC
:107F80000AD08FE07ACF813511F488E018D01DD067
:107F900080E101D065CF982F8091C00085FFFCCF94
:107FA0009093C60008958091C00087FFFCCF809118
:107FB000C00084FD01C0A8958091C6000895E0E648
:107FC000F0E098E1908380830895EDDF803219F02E
:107FD00088E0F5DFFFCF84E1DECF1F93182FE3DFCA
:107FE0001150E9F7F2DF1F91089580E0E8DFEE27F6
:047FF000FF270994CA
:027FFE00040479
:00000001FF
