:100000000C9468000C9490000C9490000C94900058
:100010000C9490000C9490000C9490000C94900020
:100020000C9490000C9490000C9490000C94900010
:100030000C9490000C9490000C9490000C94900000
:100040000C9458040C9490000C94C8040C94A204D2
:100050000C9490000C9490000C9490000C949000E0
:100060000C9490000C949000005EBCE2613FDD8334
:10007000C29C7E20A3FD1F41009D23BE46DB65F888
:100080008C11AF32CA57E974000000002500280027
:100090002B0000000000240027002A0000000000C0
:1000A00023002600290004040404040404040202BA
:1000B00002020202030303030303010204081020E7
:1000C0004080010204081020010204081020FA04F4
:1000D00011241FBECFEFD8E0DEBFCDBF11E0A0E0FE
:1000E000B1E0E4E8F2E102C005900D92AA33B10755
:1000F000D9F722E0AAE3B1E001C01D92AE30B20709
:10010000E1F710E0C8E6D0E004C02197FE010E94AC
:100110003A09C736D107C9F70E94B4050C944009C3
:100120000C9400008091E001E091E101F091E20186
:10013000F8949181982B91832281382F3095232335
:100140002283A7E0B0E01197F1F791819323918387
:10015000A3E2B0E01197F1F790817894EFECF0E032
:100160003197F1F7982381E009F480E008959091A8
:10017000E001E091E101F091E201292F209580FF5B
:1001800014C0F8948281822382838181892B8183A8
:10019000A3E2B0E01197F1F78281982B92837894D3
:1001A00087ED90E00197F1F70895F894828182231A
:1001B00082838181892B8183AFEFB0E01197F1F7C2
:1001C0008281982B928378948FE090E0EBCFFF921E
:1001D0000F931F93CF93DF93F82E062FC8E0D0E044
:1001E00011E081E09F2D912309F480E00E94B70087
:1001F000110F2197B1F7011113C0F894E091E101BB
:10020000F091E20191818091E001809598239183A2
:10021000E091E101F091E201928189238283789457
:10022000DF91CF911F910F91FF9008950F931F932E
:10023000CF93DF939091E001E091E101F091E20131
:10024000F8942181392F30952323218378944DE729
:1002500063E070E0415039F1DB011197F1F7208143
:100260002923C1F3F8942281232322832181292B7E
:1002700021837894ABE7B7E01197F1F7F8942181E7
:1002800023232183A3E1B1E01197F1F72081789432
:10029000E3E6F6E03197F1F7922329F48C3C69F01C
:1002A00040F4853579F080E0DF91CF911F910F9177
:1002B00008958C3E11F0803FB1F760E00E94E700A6
:1002C00081E0F2CF60E085E50E94E700C1EFD1E078
:1002D00009EF11E060E089910E94E7000C171D070B
:1002E000C9F7EECF8091FD018F3351F018F48F31B3
:1002F00049F008958F3541F08F37D9F78CE0089594
:100300008AE0089589E008958BE00895CF92DF9206
:10031000EF92FF920F931F93CF93DF93D0910D0233
:10032000D1116FC080EF0E941601882309F469C0C3
:1003300000E0C0E0C12CD12C7601C3940E94920051
:10034000182F0E949200112371F0882361F01092FF
:100350000C028D2FDF91CF911F910F91FF90EF90A5
:10036000DF90CF900895EC2FE695E695E695F0E0C6
:100370003C2F3770E052FE4F24A1111130C0811183
:1003800033C080910C028C1761F18C1760F1822FC1
:1003900090E0032E02C0959587950A94E2F7482FC6
:1003A000417080FF20C0D701C60104C0880F991F8B
:1003B000AA1FBB1F3A95D2F7822B84A3142F812F3B
:1003C0000E94B700CF5FC03409F0B8CF00930C0291
:1003D000011103C081E080930D02D1E0BACF412F1B
:1003E000E2CF41E0E0CF0C2FD701C60104C0880F57
:1003F000991FAA1FBB1F3A95D2F78095822384A329
:10040000DECF10920C0210920D02D0E0A2CF3FB7C7
:10041000F89480913F0190914001A0914101B091E9
:10042000420126B5A89B05C02F3F19F00196A11DDA
:10043000B11D3FBFBA2FA92F982F8827BC01CD012E
:10044000620F711D811D911D42E0660F771F881F8D
:10045000991F4A95D1F708958F929F92AF92BF92BC
:10046000CF92DF92EF92FF924B015C010E94070254
:100470006B017C010E9407026C197D098E099F099E
:10048000683E734081059105A8F321E0821A910826
:10049000A108B10888EEC80E83E0D81EE11CF11C4B
:1004A00081149104A104B10429F7FF90EF90DF902B
:1004B000CF90BF90AF909F908F900895AF92BF92D2
:1004C000CF92DF92EF92FF920F931F93CF93DF9320
:1004D0006C017B018B01040F151FEB015E01AE184F
:1004E000BF08C017D10759F06991D601ED91FC9171
:1004F0000190F081E02DC6010995892B79F7C5019E
:10050000DF91CF911F910F91FF90EF90DF90CF90EF
:10051000BF90AF900895FC01538D448D252F30E09E
:10052000842F90E0821B930B541710F0CF96089500
:1005300001970895FC01918D828D981761F0A28D2D
:10054000AE0FBF2FB11D5D968C91928D9F5F9F73F3
:10055000928F90E008958FEF9FEF0895FC01918DA9
:10056000828D981731F0828DE80FF11D858D90E016
:1005700008958FEF9FEF0895FC01918D228D892FB3
:1005800090E0805C9F4F821B91098F73992708959B
:1005900083E491E00E94BC0221E0892B09F420E071
:1005A000822F089580E090E0892B29F00E94C802F4
:1005B00081110C9400000895FC01A48DA80FB92F9F
:1005C000B11DA35ABF4F2C91848D90E001968F737B
:1005D0009927848FA689B7892C93A089B1898C919A
:1005E000837080648C93938D848D981306C00288E9
:1005F000F389E02D80818F7D80830895EF92FF92B3
:100600000F931F93CF93DF93EC0181E0888F9B8D35
:100610008C8D98131AC0E889F989808185FF15C0EF
:100620009FB7F894EE89FF896083E889F989808112
:100630008370806480839FBF81E090E0DF91CF91E1
:100640001F910F91FF90EF900895F62E0B8D10E003
:100650000F5F1F4F0F731127E02E8C8D8E110CC072
:100660000FB607FCFACFE889F989808185FFF5CFBD
:10067000CE010E94DC02F1CFEB8DEC0FFD2FF11DBE
:10068000E35AFF4FF0829FB7F8940B8FEA89FB89FA
:1006900080818062CFCFCF93DF93EC01888D882358
:1006A000B9F0AA89BB89E889F9898C9185FD03C0D5
:1006B000808186FD0DC00FB607FCF7CF8C9185FFBA
:1006C000F2CF808185FFEDCFCE010E94DC02E9CF21
:1006D000DF91CF910895CF92DF92EF92FF920F9327
:1006E0001F93CF93DF9385E50E941601882321F0A5
:1006F00060E08EEB0E94E700C9EFD1E08E0188E058
:10070000C82ED12CF12CEE24E3940E94920081118A
:10071000FE28EE0C81E0C81AD108B9F7F801F19271
:100720008F01F2E002301F0751F729E0E0E021508D
:1007300089F089918E27E82FEF70F0E0E859FF4F9C
:100740009491E82FE295EF70F0E0E858FF4FE491C4
:10075000E927EDCF81E0909101029E1380E0DF91C7
:10076000CF911F910F91FF90EF90DF90CF90089560
:10077000FC0101900020E9F73197AF01481B590BAC
:10078000BC0183E491E00C945E028F929F92AF9241
:10079000BF920F931F93CF93DF93CDB7DEB7A1978F
:1007A0000FB6F894DEBF0FBECDBF19A2423008F4D9
:1007B0004AE08E010F5D1F4F842E912CB12CA12C8D
:1007C000A50194010E941809E62FB901CA01EA3077
:1007D000F4F4E05DD801EE938D01232B242B252B1F
:1007E00079F790E080E0109719F0CD010E94B803EE
:1007F000A1960FB6F894DEBF0FBECDBFDF91CF91AB
:100800001F910F91BF90AF909F908F900895E95CDA
:10081000E1CF0F931F93CF93DF938C0180EF0E9462
:100820001601C0E0811106C080E0DF91CF911F91D9
:100830000F9108950E949200D82F0E949200DD230C
:1008400011F08111F1CFEC2FE695E695E695E00FDA
:10085000F12FF11D808190E02C2F277002C095951B
:1008600087952A95E2F781700E94B700CF5FC03468
:1008700009F788E0F801A1EFB1E001900D928A95A7
:10088000E1F70E946B03882379F20E947201809342
:10089000020285E50E941601882321F060E084EBC6
:1008A0000E94E7000E9492008093030281E0BDCF86
:1008B0001F920F920FB60F9211242F933F938F9395
:1008C0009F93AF93BF9380913B0190913C01A09186
:1008D0003D01B0913E0130913A0123E0230F2D37C5
:1008E00058F50196A11DB11D20933A0180933B015B
:1008F00090933C01A0933D01B0933E0180913F0154
:1009000090914001A0914101B09142010196A11D39
:10091000B11D80933F0190934001A0934101B0939A
:100920004201BF91AF919F918F913F912F910F9075
:100930000FBE0F901F90189526E8230F0296A11D59
:10094000B11DD2CF1F920F920FB60F9211242F9389
:100950003F934F935F936F937F938F939F93AF9347
:10096000BF93EF93FF9383E491E00E94DC02FF9139
:10097000EF91BF91AF919F918F917F916F915F9117
:100980004F913F912F910F900FBE0F901F90189590
:100990001F920F920FB60F9211242F938F939F9354
:1009A000EF93FF93E0915301F09154018081E09126
:1009B0005901F0915A0182FD1BC0908180915C0128
:1009C0008F5F8F7320915D01821741F0E0915C0190
:1009D000F0E0ED5BFE4F958F80935C01FF91EF910E
:1009E0009F918F912F910F900FBE0F901F90189590
:1009F0008081F4CFCF93DF9310924601109245018E
:100A000088EE93E0A0E0B0E0809347019093480126
:100A1000A0934901B0934A0184E091E0909344018E
:100A20008093430185EC90E09093500180934F01B7
:100A300084EC90E0909352018093510180EC90E01F
:100A4000909354018093530181EC90E09093560170
:100A50008093550182EC90E0909358018093570168
:100A600086EC90E090935A018093590110925C01BA
:100A700010925D0110925E0110925F014CEB50E00C
:100A8000FA01649188EA90E0FC0124912223C1F0EC
:100A900030E0220F331FF901EE56FF4FA591B491BC
:100AA000F901E857FF4FC591D4917FB7F8943C9175
:100AB000262F209532233C933881232328837FBF20
:100AC000FA0144914093E001FC018491E82FF0E0A9
:100AD000EE0FFF1FE456FF4F859194919093E20132
:100AE0008093E1011092EB011092ED011092EC0164
:100AF0001092EA011092E9011092E8011092E701C8
:100B00001092E6011092E5011092E4011092E301C7
:100B100010920C0210920D028CEC0E941601882398
:100B200021F060E084EB0E94E7000E949200809335
:100B3000EF010E9486018823A1F084E092E00E94E8
:100B40000904882371F00E9472019091EE019817B8
:100B500010F48093EE018091F0018F5F8093F0019B
:100B6000E8CFDF91CF910895789484B5826084BDF9
:100B700084B5816084BD85B5826085BD85B58160A1
:100B800085BD80916E00816080936E00109281001F
:100B900080918100826080938100809181008160DA
:100BA000809381008091800081608093800080919B
:100BB000B10084608093B1008091B0008160809327
:100BC000B00080917A00846080937A0080917A00EE
:100BD000826080937A0080917A00816080937A00AD
:100BE00080917A00806880937A001092C100E09131
:100BF0005301F091540182E08083E0914F01F09124
:100C000050011082E0915101F09152018FEC8083EC
:100C100010925B01E0915701F091580186E08083CA
:100C2000E0915501F0915601808180618083E091CF
:100C30005501F0915601808188608083E0915501D3
:100C4000F0915601808180688083E0915501F09198
:100C5000560180818F7D8083C0E0D0E00E948601B4
:100C6000882309F410C184E092E00E9409048823DB
:100C700009F409C182E191E00E94B803F0900302F7
:100C800085E50E941601882331F061E0F11060E0F3
:100C900084E40E94E700809103028823D1F10E943E
:100CA00092008823E1F30E946B036091F901809127
:100CB000FA01909102029A3009F44DC09B3009F478
:100CC0004CC0993009F4687F90E0982F8827680F0E
:100CD000792F711D072E000C880B990B0E94F107CC
:100CE00020E030E040E85DE30E94A6086B017C0153
:100CF0004B015C01AC019B010E941309882379F12F
:100D00008AE291E00E94B80386E391E00E94B80372
:100D1000A5CF809102028A30A1F048F4893019F6FB
:100D20006EE570E080E090E00E942C02BCCF8B303A
:100D300069F08C3009F0B7CF6EEE72E080E090E0A1
:100D4000F3CF6CEB70E080E090E0EECF67E771E00E
:100D500080E090E0E9CF6C7FB7CF6E7FB5CF260102
:100D60003701E89477F82FEF3FEF4FE75FE7C301D4
:100D7000B2010E94130981110DC02FEF3FEF4FE721
:100D80005FE7C301B2010E94BB0718161CF48EE294
:100D900091E0B8CF2FEF3FEF4FE75FE4C701B60117
:100DA0000E94A10818161CF482E391E0ABCF2FEF4C
:100DB0003FEF4FE75FECC701B6010E94BB0787FD1D
:100DC000F3CF20E030E0A901C701B6010E94BB07C4
:100DD00087FF0BC06DE283E491E00E94FE024601B2
:100DE0005701B7FAB094B7F8B0942AE037ED43EA68
:100DF0005BE3C501B4010E944F074B015C010E94F7
:100E0000C0076B017C010E94EF079B01AC01C5018B
:100E1000B4010E944E074B015C014AE0C701B601D4
:100E20000E94C5036EE283E491E00E94FE0220E08E
:100E300030E040E251E4C501B4010E94A6084B0134
:100E40005C010E94C0076B01F12CE12C4AE0C70154
:100E5000B6010E94C503C701B6010E94EF079B01BE
:100E6000AC01C501B4010E944E0720E030E040E231
:100E700051E40E94A6080E94C00790E080E04AE08A
:100E80000E94C50341CF209709F4E8CE0E94C80212
:100E9000882309F4E3CE0E940000E0CE5058BB271F
:100EA000AA270E9466070C9467080E94590838F028
:100EB0000E94600820F039F49F3F19F426F40C9446
:100EC00056080EF4E095E7FB0C945008E92F0E94B9
:100ED000780858F3BA17620773078407950720F05C
:100EE00079F4A6F50C949A080EF4E0950B2EBA2F1F
:100EF000A02D0B01B90190010C01CA01A001112420
:100F0000FF27591B99F0593F50F4503E68F11A16CB
:100F1000F040A22F232F342F4427585FF3CF46955C
:100F200037952795A795F0405395C9F77EF41F167E
:100F3000BA0B620B730B840BBAF09150A1F0FF0F48
:100F4000BB1F661F771F881FC2F70EC0BA0F621F34
:100F5000731F841F48F4879577956795B795F79524
:100F60009E3F08F0B0CF9395880F08F09927EE0FB9
:100F70009795879508950E942C0808F481E00895BC
:100F80000E94800888F09F5798F0B92F9927B75191
:100F9000B0F0E1F0660F771F881F991F1AF0BA951D
:100FA000C9F714C0B13091F00E949A08B1E00895D9
:100FB0000C949A08672F782F8827B85F39F0B93FCB
:100FC000CCF3869577956795B395D9F73EF49095D0
:100FD0008095709561957F4F8F4F9F4F0895E8944E
:100FE00009C097FB3EF490958095709561957F4F71
:100FF0008F4F9F4F9923A9F0F92F96E9BB2793951F
:10100000F695879577956795B795F111F8CFFAF42E
:10101000BB0F11F460FF1BC06F5F7F4F8F4F9F4F5F
:1010200016C0882311F096E911C0772321F09EE8BD
:10103000872F762F05C0662371F096E8862F70E023
:1010400060E02AF09A95660F771F881FDAF7880FFD
:101050009695879597F90895990F0008550FAA0B53
:10106000E0E8FEEF16161706E807F907C0F01216BB
:101070001306E407F50798F0621B730B840B950BBE
:1010800039F40A2661F0232B242B252B21F4089513
:101090000A2609F4A140A6958FEF811D811D0895B0
:1010A00097F99F6780E870E060E008959FEF80EC1B
:1010B000089500240A9416161706180609060895BE
:1010C00000240A9412161306140605060895092E24
:1010D0000394000C11F4882352F0BB0F40F4BF2B93
:1010E00011F460FF04C06F5F7F4F8F4F9F4F0895D3
:1010F00057FD9058440F551F59F05F3F71F04795C9
:10110000880F97FB991F61F09F3F79F087950895AD
:10111000121613061406551FF2CF4695F1DF08C0CC
:10112000161617061806991FF1CF869571056105E9
:1011300008940895E894BB2766277727CB0197F991
:1011400008950E942C0808F48FEF08950E94B908B2
:101150000C9467080E94590838F00E94600820F03B
:10116000952311F00C9450080C94560811240C94FB
:101170009B080E94780870F3959FC1F3950F50E08B
:10118000551F629FF001729FBB27F00DB11D639F39
:10119000AA27F00DB11DAA1F649F6627B00DA11DDF
:1011A000661F829F2227B00DA11D621F739FB00D85
:1011B000A11D621F839FA00D611D221F749F3327F5
:1011C000A00D611D231F849F600D211D822F762F8E
:1011D0006A2F11249F5750409AF0F1F088234AF06B
:1011E000EE0FFF1FBB1F661F771F881F91505040D7
:1011F000A9F79E3F510580F00C9450080C949B0871
:101200005F3FE4F3983ED4F3869577956795B7955D
:10121000F795E7959F5FC1F7FE2B880F911D969577
:10122000879597F908950E942C08880B990B0895CB
:10123000A1E21A2EAA1BBB1BFD010DC0AA1FBB1FDA
:10124000EE1FFF1FA217B307E407F50720F0A21B4C
:10125000B30BE40BF50B661F771F881F991F1A94B9
:1012600069F760957095809590959B01AC01BD01E3
:10127000CF010895EE0FFF1F0590F491E02D099422
:04128000F894FFCF10
:1012840000000000FE025E028B024B03BC029A02C5
:10129400AE0254656D706572617475726520286361
:1012A400656C73697573293A20006E616E00696E0E
:0A12B40066006F7666000D0A000068
:00000001FF
